{
  "fileName": "Controller.sol",
  "contractName": "Controller",
  "source": "pragma solidity ^0.5.0;\n\nimport \"../node_modules/@openzeppelin/upgrades/contracts/Initializable.sol\";\nimport \"../node_modules/@openzeppelin/contracts/math/SafeMath.sol\";\n\ncontract Controller is Initializable {\n\n  using SafeMath for uint256;\n\n  address public parent;\n  address public child;\n  uint256 public dailyLimit;\n\n  function initialize(address _parent, address _child, uint256 _dailyLimit) public initializer {\n      parent = _parent;\n      child = _child;\n      dailyLimit = _dailyLimit;\n  }\n  function changeDailyLimit(uint256 _newDailyLimit) public returns (bool){\n      dailyLimit = _newDailyLimit;\n  }\n  // function increase(uint256 amount) public {\n  //     value += amount;\n  // }\n}",
  "sourcePath": "contracts/Controller.sol",
  "abi": [
    {
      "constant": false,
      "inputs": [
        {
          "internalType": "uint256",
          "name": "_newDailyLimit",
          "type": "uint256"
        }
      ],
      "name": "changeDailyLimit",
      "outputs": [
        {
          "internalType": "bool",
          "name": "",
          "type": "bool"
        }
      ],
      "payable": false,
      "stateMutability": "nonpayable",
      "type": "function"
    },
    {
      "constant": true,
      "inputs": [],
      "name": "child",
      "outputs": [
        {
          "internalType": "address",
          "name": "",
          "type": "address"
        }
      ],
      "payable": false,
      "stateMutability": "view",
      "type": "function"
    },
    {
      "constant": true,
      "inputs": [],
      "name": "dailyLimit",
      "outputs": [
        {
          "internalType": "uint256",
          "name": "",
          "type": "uint256"
        }
      ],
      "payable": false,
      "stateMutability": "view",
      "type": "function"
    },
    {
      "constant": false,
      "inputs": [
        {
          "internalType": "address",
          "name": "_parent",
          "type": "address"
        },
        {
          "internalType": "address",
          "name": "_child",
          "type": "address"
        },
        {
          "internalType": "uint256",
          "name": "_dailyLimit",
          "type": "uint256"
        }
      ],
      "name": "initialize",
      "outputs": [],
      "payable": false,
      "stateMutability": "nonpayable",
      "type": "function"
    },
    {
      "constant": true,
      "inputs": [],
      "name": "parent",
      "outputs": [
        {
          "internalType": "address",
          "name": "",
          "type": "address"
        }
      ],
      "payable": false,
      "stateMutability": "view",
      "type": "function"
    }
  ],
  "bytecode": "0x608060405234801561001057600080fd5b50610427806100206000396000f3fe608060405234801561001057600080fd5b50600436106100575760003560e01c80631794bb3c1461005c578063237b5e96146100ca57806360f96a8f1461011457806367eeba0c1461015e578063cea086211461017c575b600080fd5b6100c86004803603606081101561007257600080fd5b81019080803573ffffffffffffffffffffffffffffffffffffffff169060200190929190803573ffffffffffffffffffffffffffffffffffffffff169060200190929190803590602001909291905050506101c2565b005b6100d261034d565b604051808273ffffffffffffffffffffffffffffffffffffffff1673ffffffffffffffffffffffffffffffffffffffff16815260200191505060405180910390f35b61011c610373565b604051808273ffffffffffffffffffffffffffffffffffffffff1673ffffffffffffffffffffffffffffffffffffffff16815260200191505060405180910390f35b610166610399565b6040518082815260200191505060405180910390f35b6101a86004803603602081101561019257600080fd5b810190808035906020019092919050505061039f565b604051808215151515815260200191505060405180910390f35b600060019054906101000a900460ff16806101e157506101e06103ad565b5b806101f857506000809054906101000a900460ff16155b61024d576040517f08c379a000000000000000000000000000000000000000000000000000000000815260040180806020018281038252602e8152602001806103c5602e913960400191505060405180910390fd5b60008060019054906101000a900460ff16159050801561029d576001600060016101000a81548160ff02191690831515021790555060016000806101000a81548160ff0219169083151502179055505b83603360006101000a81548173ffffffffffffffffffffffffffffffffffffffff021916908373ffffffffffffffffffffffffffffffffffffffff16021790555082603460006101000a81548173ffffffffffffffffffffffffffffffffffffffff021916908373ffffffffffffffffffffffffffffffffffffffff1602179055508160358190555080156103475760008060016101000a81548160ff0219169083151502179055505b50505050565b603460009054906101000a900473ffffffffffffffffffffffffffffffffffffffff1681565b603360009054906101000a900473ffffffffffffffffffffffffffffffffffffffff1681565b60355481565b600081603581905550919050565b6000803090506000813b905060008114925050509056fe436f6e747261637420696e7374616e63652068617320616c7265616479206265656e20696e697469616c697a6564a265627a7a72315820d1d062049429609dfe1abe9a704c96e676729688f45a169d365692ac5862afe064736f6c63430005110032",
  "compiler": {
    "name": "solc",
    "version": "0.5.17+commit.d19bba13.Emscripten.clang",
    "optimizer": {
      "enabled": false,
      "runs": 200
    },
    "evmVersion": "petersburg"
  }
}